S018000046325F626F726465725F726F757465722E73726563B7
S21400000000000320E904000061430200054E0000E2
S21400001045050000450500004505000000000000FD
S2140000200000000000000000000000007D2101002C
S21400003045050000000000007D230100DD230100CF
S2140000405D0500006105000065050000690500000B
S2140000506D050000710500007505000079050000BB
S2140000607D0500008105000085050000890500006B
S2140000708D0500009105000095050000990500001B
S2140000809D050000450500004505000045050000EB
S2140000904505000045050000450500004505000033
S2140000A0A1050000A5050000A9050000AD0500009B
S2140000B0B1050000B5050000B9050000BD0500004B
S2140000C0C1050000C5050000C9050000CD050000FB
S2140000D0D1050000D5050000D90500004505000043
S2140000E045050000450500004505000045050000E3
S2140000F045050000450500004505000045050000D3
S21400010045050000450500004505000045050000C2
S21400011045050000450500004505000045050000B2
S21400012045050000450500004505000045050000A2
S2140001304505000045050000450500004505000092
S21400014045050000DD050000E1050000E5050000AE
S214000150E9050000ED050000450500004505000026
S2140001604505000045050000F1050000F505000006
S214000170F9050000FD050000010600000506000068
S214000180090600000D06000011060000B125020059
S214000190D1250200F12502004505000045050000B6
S2140001A04505000045050000450500004505000022
S2140001B04505000045050000450500004505000012
S2140001C04505000045050000450500004505000002
S2140001D045050000450500004505000045050000F2
S2140003F0450500004505000045050000FFFFFFFF1E
S214000400FFFFFFFFFFFFFFFFFFFFFFFFFEFFFFFFF8
S21400042010B5054C237833B9044B13B10448AFF329
S21400043000800123237010BD800CFF1F0000000009
S2140004409879050008B5064B1BB106480649AFF378
S21400045000800648036813B1054B03B1984708BDF2
S2140004600000000098790500840CFF1F7C0CFF1F1D
S21400047000000000154B002B08BF134B9D46A3F54C
S214000480803A00218B460F461348144A121A50F041
S2140004903CFE0F4B002B00D098470E4B002B00D095
S2140004A098470020002104000D000D48002802D0C7
S2140004B00C48AFF3008050F0F9FD2000290019F039
S2140004C0C5F850F0DFFD00BF000008000000032064
S2140004D00000000000000000800CFF1F249D00208C
S2140004E0000000000000000072B60D480D490160D3
S2140004F00D4880470D490E4A0E4B9A42BEBF51F832
S214000500040B42F8040BF8E70B490C4A0020914212
S214000510BCBF41F8040BFAE762B609488047000002
S21400052008ED00E00000000059350000D87905000D
S2140005300004FF1F800CFF1F800CFF1F249D00205F
S21400054075040000FFF7FEBF3548004735480047F2
S2140005503548004735480047354800473548004786
S2140005603548004735480047354800473548004776
S2140005703548004735480047354800473548004766
S2140005803548004735480047354800473548004756
S2140005903548004735480047354800473548004746
S2140005A03548004735480047354800473548004736
S2140005B03548004735480047354800473548004726
S2140005C03548004735480047354800473548004716
S2140005D03548004735480047354800473548004706
S2140005E035480047354800473548004735480047F6
S2140005F035480047354800473448004733480047E9
S21400060032480047314800473048004730480047E6
S21400061030480047304800473048004730480047D9
S21400062061430200054E00007D2101007D2301008C
S214000630DD230100450500004505000045050000D6
S214000640450500004505000045050000450500007D
S214000650450500004505000045050000450500006D
S214000660450500004505000045050000450500005D
S2140006704505000045050000D9320200F5320200AB
S2140006806D130200A9130200450500004505000091
S21400069045050000C13B020045050000ED3B020099
S2140006A045050000193C020045050000453C0200D7
S2140006B045050000E5130200713C020045050000F8
S2140006C09D3C020045050000113302004505000070
S2140006D045050000450500004505000045050000ED
S2140006E045050000000000000000000000000000BB
S2140006F02DE9F05F40F20048C1F6FF78F0C824BA52
S2140007002DBA36BA3FBAF0C298E8001C802900F02D
S214000710D781C02900F0FF8090E80A0309BA1BBA07
S21400072098FA88F899FA89F9A2E80A035AF8040BA5
S2140007304FEA396ECCF844E8CCF800B0DCF884E830
S2140007408EEA000E84EA0E0485EA040586EA0506AB
S21400075087EA0607F0C2CCF84478CCF800B0DCF89C
S21400076084E881EA0E0183EA010388EA030889EA3D
S2140007700809A2E80A035AF8040B4FEA396ECCF8C7
S21400078044E8CCF800B0DCF884E88EEA000E84EA90
S2140007900E0485EA040586EA050687EA0607F0C21F
S2140007A0CCF84478CCF800B0DCF884E881EA0E0196
S2140007B083EA010388EA030889EA0809A2E80A032B
S2140007C05AF8040B4FEA396ECCF844E8CCF800B07F
S2140007D0DCF884E88EEA000E84EA0E0485EA040556
S2140007E086EA050687EA0607F0C2CCF84478CCF815
S2140007F000B0DCF884E881EA0E0183EA010388EAA7
S214000800030889EA0809A2E80A035AF8040B4FEA23
S214000810396ECCF844E8CCF800B0DCF884E88EEA10
S214000820000E84EA0E0485EA040586EA050687EAD1
S2140008300607F0C2CCF84478CCF800B0DCF884E8C0
S21400084081EA0E0183EA010388EA030889EA0809B7
S214000850A2E80A035AF8040B4FEA396ECCF844E8CB
S214000860CCF800B0DCF884E88EEA000E84EA0E04C9
S21400087085EA040586EA050687EA0607F0C2CCF88C
S2140008804478CCF800B0DCF884E881EA0E0183EA0C
S214000890010388EA030889EA0809A2E80A035AF865
S2140008A0040B4FEA396ECCF844E8CCF800B0DCF81C
S2140008B084E88EEA000E84EA0E0485EA040586EAD9
S2140008C0050687EA0607F0C2CCF84478CCF800B0F4
S2140008D0DCF884E881EA0E0183EA010388EA03086B
S2140008E089EA0809A2E80A035AF8040B4FEA396EA7
S2140008F0CCF844E8CCF800B0DCF884E88EEA000EC9
S21400090084EA0E0485EA040586EA050687EA0607F1
S214000910F0C2BDE8F09F90E8000398FA88F899FACC
S21400092089F9A2E800035AF8040B4FEA3963CCF8B9
S2140009304438CCF800B0DCF8843883EA000384EA54
S214000940030485EA040586EA050687EA060788EAB8
S214000950070889EA0809A2E8F0035AF8040B4FEAE8
S2140009603963CCF84438CCF800B0DCF8843883EA35
S214000970000384EA030485EA040586EA050687EA96
S214000980060788EA070889EA0809A2E8F0035AF881
S214000990040B4FEA3963CCF84438CCF800B0DCF8E6
S2140009A0843883EA000384EA030485EA040586EAB9
S2140009B0050687EA060788EA070889EA0809A2E81A
S2140009C0F0035AF8040B4FEA3963CCF84438CCF8F5
S2140009D000B0DCF8843883EA000384EA030485EA7E
S2140009E0040586EA050687EA060788EA070889EA0C
S2140009F00809A2E8F0035AF8040B4FEA3963CCF86A
S214000A004438CCF800B0DCF8843883EA000384EA83
S214000A10030485EA040586EA050687EA060788EAE7
S214000A20070889EA0809A2E8F0035AF8040B4FEA17
S214000A303963CCF84438CCF800B0DCF8843883EA64
S214000A40000384EA030485EA040586EA050687EAC5
S214000A50060788EA070889EA0809A2E8F0035AF8B0
S214000A60040B4FEA3963CCF84438CCF800B0DCF815
S214000A70843883EA000384EA030485EA040586EAE8
S214000A80050687EA060788EA070889EA0809A2E849
S214000A90F0035AF8040B4FEA3963CCF84438CCF824
S214000AA000B0DCF8843883EA000384EA030485EAAD
S214000AB0040586EA050687EA0607F0C2BDE8F09F49
S214000AC0DAF800004FEA3763CCF84438CCF800B0C8
S214000AD0DCF8843883EA000384EA030485EA040524
S214000AE086EA050687EA0607F0C2DAF804004FEA47
S214000AF03763CCF84438CCF800B0DCF8843883EAA6
S214000B00000384EA030485EA040586EA050687EA04
S214000B100607F0C2DAF808004FEA3763CCF8443824
S214000B20CCF800B0DCF8843883EA000384EA0304D7
S214000B3085EA040586EA050687EA0607F0C2DAF8BB
S214000B400C004FEA3763CCF84438CCF800B0DCF839
S214000B50843883EA000384EA030485EA040586EA07
S214000B60050687EA0607F0C2DAF810004FEA376390
S214000B70CCF84438CCF800B0DCF8843883EA0003BC
S214000B8084EA030485EA040586EA050687EA06077A
S214000B90F0C2DAF814004FEA3763CCF84438CCF8E1
S214000BA000B0DCF8843883EA000384EA030485EAAC
S214000BB0040586EA050687EA0607F0C2DAF8180092
S214000BC04FEA3763CCF84438CCF800B0DCF8843809
S214000BD083EA000384EA030485EA040586EA050638
S214000BE087EA0607F0C2DAF81C004FEA3763CCF84B
S214000BF04438CCF800B0DCF8843883EA000384EA92
S214000C00030485EA040586EA050687EA0607F0C2B5
S214000C10DAF820004FEA3763CCF84438CCF800B056
S214000C20DCF8843883EA000384EA030485EA0405D2
S214000C3086EA050687EA0607F0C2DAF824004FEAD5
S214000C403763CCF84438CCF800B0DCF8843883EA54
S214000C50000384EA030485EA040586EA050687EAB3
S214000C600607F0C2BDE8F09FAFF30080AFF3008048
S214000C702DE9F01F90E8F00024BA2DBA36BA3FBA34
S214000C8040F21040C1F6FF70B1E8000F84EA080495
S214000C9085EA090586EA0A0687EA0B0790E8011F37
S214000CA08BE8F000CCF80000CCF80080F0C989E8AA
S214000CB0F000CCF80000CCF80080F0C989E8F0001D
S214000CC0CCF80000CCF80080F0C989E8F000CCF839
S214000CD00000CCF80080F0C989E8F000CCF80000ED
S214000CE0CCF80080F0C989E8F000CCF80000CCF819
S214000CF00080F0C989E8F000CCF80000CCF800804D
S214000D00F0C989E8F000CCF80000CCF80080F0C903
S214000D1089E8F000CCF80000CCF80080F0C989E83B
S214000D20F0000A2A1DD0CCF80000CCF80080F0C9EC
S214000D3089E8F000CCF80000CCF80080F0C989E81B
S214000D40F0000C2A0DD0CCF80000CCF80080F0C9DA
S214000D5089E8F000CCF80000CCF80080F0C989E8FB
S214000D60F000CCF80000CCF800809AE8F00091E89B
S214000D70000F84EA080485EA090586EA0A0687EA77
S214000D800B0724BA2DBA36BA3FBA83E8F000BDE89E
S214000D90F01F7047AFF30080AFF30080AFF3008022
S214000DA02DE9F01F90E8F00024BA2DBA36BA3FBA03
S214000DB040F23040C1F6FF7001EB021191E8000FDF
S214000DC084EA080485EA090586EA0A0687EA0B0724
S214000DD090E8011F8BE8F00031E9F000CCF8000045
S214000DE0CCF8008089E8F00031E9F000CCF800008B
S214000DF0CCF8008089E8F00031E9F000CCF800007B
S214000E00CCF8008089E8F00031E9F000CCF800006A
S214000E10CCF8008089E8F00031E9F000CCF800005A
S214000E20CCF8008089E8F00031E9F000CCF800004A
S214000E30CCF8008089E8F00031E9F000CCF800003A
S214000E40CCF8008089E8F00031E9F000CCF800002A
S214000E50CCF8008089E8F00031E9F000CCF800001A
S214000E60CCF8008089E8F0000A2A21D031E9F000A9
S214000E70CCF80000CCF8008089E8F00031E9F000FA
S214000E80CCF80000CCF8008089E8F0000C2A0FD0DF
S214000E9031E9F000CCF80000CCF8008089E8F000DA
S214000EA031E9F000CCF80000CCF8008089E8F000CA
S214000EB0CCF80000CCF800809AE8F00031E9000F8A
S214000EC084EA080485EA090586EA0A0687EA0B0723
S214000ED024BA2DBA36BA3FBA83E8F000BDE8F01F50
S214000EE0704700BFAFF30080AFF30080AFF3008021
S214000EF02DE9F00140F2A041C1F6FF7191E8FE0134
S214000F0080E8FE01BDE8F0014FF00000704700BF2A
S214000F102DE9F01F41F2000CCEF2080CD0B005927D
S214000F208B4692E8FE010CF6480989E8FE0140F27D
S214000F30804AC1F6FF7ACDF808A00DF11C0900BF63
S214000F4089E8FE01DDF808A09AE8E00750F8042BCF
S214000F5011BA1091CCF84418CCF800905AF8043B1B
S214000F60CCF8C438CCF80080CCF8007050F8042BCD
S214000F7011BA5AF8043BCCF844181191CCF80090FA
S214000F80CCF8C438CCF80080CCF8007050F8042BAD
S214000F9011BA5AF8043BCCF844181291CCF80090D9
S214000FA0CCF8C438CCF80080CCF8007050F8042B8D
S214000FB011BA5AF8043BCCF844181391CCF80090B8
S214000FC0CCF8C438CCF80080CCF8007050F8042B6D
S214000FD011BA5AF8043BCCF844181491CCF8009097
S214000FE0CCF8C438CCF80080CCF8007050F8042B4D
S214000FF011BA5AF8043BCCF844181591CCF8009076
S214001000CCF8C438CCF80080CCF8007050F8042B2C
S21400101011BA5AF8043BCCF844181691CCF8009054
S214001020CCF8C438CCF80080CCF8007050F8042B0C
S21400103011BA5AF8043BCCF844181791CCF8009033
S214001040CCF8C438CCF80080CCF8007050F8042BEC
S21400105011BA5AF8043BCCF844181891CCF8009012
S214001060CCF8C438CCF80080CCF8007050F8042BCC
S21400107011BA5AF8043BCCF844181991CCF80090F1
S214001080CCF8C438CCF80080CCF8007050F8042BAC
S21400109011BA5AF8043BCCF844181A91CCF80090D0
S2140010A0CCF8C438CCF80080CCF8007050F8042B8C
S2140010B011BA5AF8043BCCF844181B91CCF80090AF
S2140010C0CCF8C438CCF80080CCF8007050F8042B6C
S2140010D011BA5AF8043BCCF844181C91CCF800908E
S2140010E0CCF8C438CCF80080CCF8007050F8042B4C
S2140010F011BA5AF8043BCCF844181D91CCF800906D
S214001100CCF8C438CCF80080CCF8007050F8042B2B
S21400111011BA5AF8043BCCF844181E91CCF800904B
S214001120CCF8C438CCF80080CCF8007050F8042B0B
S21400113011BA5AF8043BCCF844181F91CCF800902A
S214001140CCF8C438CCF80080CCF800704FF03002F1
S21400115020AB00BF53F8401CCCF8441853F83C1C96
S214001160CCF86818CCF8005053F81C1CCCF8C418FF
S21400117053F8081CCCF86818CCF80060DCF8841823
S21400118043F8041BCCF800905AF8041BCCF8C4189B
S214001190CCF80080CCF80070013ADBD10DF11C09C8
S2140011A00CF6C80A99E8FE018AE8FE010CF6880AE1
S2140011B09AE8FE01BBF1010B7FF4C2AEDDF8149095
S2140011C050B089E8FE01BDE8F01F7047AFF300801D
S2140011D02DE9F04F40F2A044C1F6FF7494E8F00FFA
S2140011E082E8F00FFFF794FEBDE8F08FAFF30080C3
S2140011F00A464FF001018BE6AFF30080AFF30080A4
S21400120030B4C579DFF8BC3504785D5D6C4062406B
S2140012100A70447862404A70847854408C70C5786E
S214001220027B5D5D6A400A73C5786C40CC70C57AF7
S21400123004795D5D6C400C7145796C404C71857924
S2140012406C408C71C5796C40CC71C57B047A5B5D53
S21400125063400B72447A63404B72847A63408B72AD
S214001260C47A6340CB72437B5A404A73837B5A40AE
S2140012708A73C07B5040C87330BC704730B4DFF808
S214001280483593F8A02093F8B040DFF8381593F867
S214001290B55062408A5C93F8B14083F8A02093F87A
S2140012A0A12062408A5C93F8B24083F8A12093F8AC
S2140012B0A22062408A5C93F8B34083F8A22093F899
S2140012C0A32062408A5C93F8B44083F8A32093F886
S2140012D0A420624093F8A5406C400C5D93F8B6508D
S2140012E083F8A44093F8A6406C400C5D93F8B75082
S2140012F083F8A54093F8A7406C400C5D93F8BA506D
S21400130083F8A6408A5C93F8B84083F8A72093F841
S214001310A820624093F8AA406C400C5D93F8BB503E
S21400132083F8A8408A5C93F8B94083F8AA2093F81B
S214001330A920624093F8AB406C400C5D93F8BE5019
S21400134083F8A9408A5C93F8BF4083F8AB2093F8F3
S214001350AF20624093F8AE406C400C5D93F8BD50F1
S21400136083F8AF4093F8AD406C400C5D93F8BC50EA
S21400137083F8AE4093F8AC406C400C5D83F8AD400B
S214001380895C83F8AC10024630BC03F1B00103F16F
S214001390B00035E7F0B4DFF8300490F8A44090F8D9
S2140013A0A05090F8A83090F8AC2084EA0501594087
S2140013B082EA01060FF2642184EA0507CF5D7740D2
S2140013C06F4080F8A07083EA0407CF5D77407C40CA
S2140013D080F8A44082EA03040C5D7440634080F801
S2140013E0A83085EA0203CB5C90F8A14090F8A5509F
S2140013F073405A4080F8AC2085EA040790F8A9307C
S21400140090F8AD20CF5D85EA04065E4056407740F2
S214001410674080F8A17083EA0507CF5D77407D407E
S21400142080F8A55082EA03054D5D75406B4080F854
S214001430A93084EA0203CB5C90F8A24090F8A6504C
S21400144073405A4080F8AD2085EA040790F8AA3029
S21400145090F8AE20CF5D85EA04065E4056407740A1
S214001460674080F8A27083EA0507CF5D77407D402D
S21400147080F8A65082EA03054D5D75406B4080F803
S214001480AA3084EA0203CB5C90F8A34090F8A750F9
S21400149073405A4080F8AE2085EA040790F8AB30D7
S2140014A090F8AF20CF5D85EA04065E405640774050
S2140014B0674080F8A37083EA0507CF5D77407D40DC
S2140014C080F8A75082EA03054D5D75406B4080F8B2
S2140014D0AB3084EA0203C95C7140514080F8AF101B
S2140014E0F0BC70472DE9F04F82B0B8480FF22C12CE
S2140014F00421037BD45C8DF8064090F80890145DB8
S21400150012F809A0155D12F80A608DF8056090F8CB
S214001510048012F806E012F808608DF80460965D04
S2140015208DF80360965D9DF803B08DF80060067830
S214001530975D8DF80270D75D8DF8017012F807C0C0
S2140015409DF800708BEA07079DF804B08BEA070742
S2140015508EEA07078AEA070789EA07076F406740A7
S2140015606C405F409DF805B08CEA070777408BEA31
S2140015700E0B8AEA0B0A9DF806B085EA0A0A8BEA81
S2140015800A0A83EA0A0A9DF801B08CEA0A0A8BEA7C
S2140015900A0A9DF800B086EA0A0A8BEA0A0A9DF84B
S2140015A006B08BEA04049DF802B08CEA04048BEAC9
S2140015B0040474409DF8006074409DF80360744015
S2140015C09DF8016086EA0C068BEA060C9DF8006022
S2140015D086EA0C0C9DF8046086EA0C0688EA060685
S2140015E08EEA060688EA04048EEA04049DF805E0FE
S2140015F08EEA060689EA060675406B40037088EA9E
S2140016000A0A89EA0404077180F808A00473401CDB
S214001610491E7FF46EAF02B0BDE8F08F00020406EC
S214001620080A0C0E10121416181A1C1E2022242645
S214001630282A2C2E30323436383A3C3E4042444635
S214001640484A4C4E50525456585A5C5E6062646625
S214001650686A6C6E70727476787A7C7E8082848615
S214001660888A8C8E90929496989A9C9EA0A2A4A605
S214001670A8AAACAEB0B2B4B6B8BABCBEC0C2C4C6F5
S214001680C8CACCCED0D2D4D6D8DADCDEE0E2E4E6E5
S214001690E8EAECEEF0F2F4F6F8FAFCFE1B191F1D71
S2140016A0131117150B090F0D030107053B393F3DB5
S2140016B0333137352B292F2D232127255B595F5DA5
S2140016C0535157554B494F4D434147457B797F7D95
S2140016D0737177756B696F6D636167659B999F9D85
S2140016E0939197958B898F8D83818785BBB9BFBD75
S2140016F0B3B1B7B5ABA9AFADA3A1A7A5DBD9DFDD65
S214001700D3D1D7D5CBC9CFCDC3C1C7C5FBF9FFFD54
S214001710F3F1F7F5EBE9EFEDE3E1E7E52A480FF241
S214001720B00190F8A0208A5C90F8A63080F8A0203F
S21400173090F8A1208A5C80F8A12090F8A2208A5C0C
S21400174080F8A22090F8A3208A5C80F8A320CB5CC7
S21400175090F8A72080F8A73090F8A530CB5C80F8EA
S214001760A63090F8A430CB5C80F8A5308A5C90F860
S214001770A93080F8A420CB5C90F8AB2080F8AB3082
S2140017808A5C90F8A83080F8A920CB5C90F8AA2054
S21400179080F8AA308A5C90F8AD3080F8A820CB5C40
S2140017A090F8AC2080F8AC3090F8AE30CB5C80F887
S2140017B0AD3090F8AF30CB5C80F8AE30895C80F806
S2140017C0AF107047102900009C0CFF1F3C0DFF1F38
S2140017D052096AD53036A538BF40A39E81F3D7FBA1
S2140017E07CE339829B2FFF87348E4344C4DEE9CBEB
S2140017F0547B9432A6C2233DEE4C950B42FAC34E60
S214001800082EA16628D924B2765BA2496D8BD12515
S21400181072F8F66486689816D4A45CCC5D65B692B9
S2140018206C704850FDEDB9DA5E154657A78D9D845D
S21400183090D8AB008CBCD30AF7E45805B8B345067D
S214001840D02C1E8FCA3F0F02C1AFBD0301138A6B97
S2140018503A9111414F67DCEA97F2CFCEF0B4E673C7
S21400186096AC7422E7AD3585E2F937E81C75DF6E75
S21400187047F11A711D29C5896FB7620EAA18BE1BDB
S214001880FC563E4BC6D279209ADBC0FE78CD5AF481
S2140018901FDDA8338807C731B11210592780EC5FC7
S2140018A060517FA919B54A0D2DE57A9F93C99CEF23
S2140018B0A0E03B4DAE2AF5B0C8EBBB3C8353996124
S2140018C0172B047EBA77D626E169146355210C7D62
S2140018D030B50446154681B0C5F10E0004F8010B7C
S2140018E020461DF01FFEC5F10F02601901B0BDE8CD
S2140018F0304000211DF07CBE2DE9F84F84B0DFF8A3
S214001900504D037884F8A030002A037984F8A1307B
S214001910037A84F8A230037B84F8A330437884F8F3
S214001920A430437984F8A530437A84F8A630437B04
S21400193084F8A730837884F8A830837984F8A930AF
S214001940837A84F8AA30837B84F8AB30C37884F833
S214001950AC30C37984F8AD30C37A84F8AE30C07B3F
S21400196084F8AF00087884F8B000087984F8B100ED
S214001970087A84F8B200087B84F8B300487884F8C4
S214001980B400487984F8B500487A84F8B600487BF5
S21400199084F8B700887884F8B800887984F8B900A5
S2140019A0887A84F8BA00887B84F8BB00C87884F804
S2140019B0BC00C87984F8BD00C87A84F8BE00C87B2D
S2140019C084F8BF0000F070850120FFF757FCFFF792
S2140019D0E1FC0220FFF752FCFFF7DCFC0420FFF7D7
S2140019E04DFCFFF7D7FC0820FFF748FCFFF7D2FCBA
S2140019F094F8A00094F8B0100FF6147594F8A2208E
S214001A0094F8A33094F8B46094F8A6C094F8B7B0ED
S214001A1094F8AAE094F8AB9094F8ACA04840285C00
S214001A2094F8A11084F8A00094F8B1004140695CD5
S214001A3084F8A11094F8B2104A40AA5C84F8A22058
S214001A4094F8B3205340EB5C84F8A33094F8A430A9
S214001A5086EA030794F8B53094F8A5605E40AE5D5C
S214001A6084F8A46094F8B66086EA0C0C15F80CC0EE
S214001A7084F8A5C094F8A7C08BEA0C0C15F80CC027
S214001A8084F8A6C0EF5D94F8B8C084F8A77094F800
S214001A90A8708CEA070C94F8BA7087EA0E0E15F850
S214001AA00EE084F8A8E015F80CC094F8A9E084F8D5
S214001AB0AAC094F8B9C08CEA0E0894F8BBE08EEA87
S214001AC0090915F8099084F8A99015F8088094F883
S214001AD0AF9084F8AB8094F8BF8088EA09088DF848
S214001AE0008094F8AE9094F8BE8088EA090815F84D
S214001AF0088094F8AD9084F8AF8094F8BD8088EAAA
S214001B00090915F8099084F8AE9094F8BC9089EA13
S214001B100A0915F8099094F8B0A084F8AD909DF8DD
S214001B20009015F8099084F8AC9015F80B9089F0A1
S214001B30100989EA0A0984F8B09094F8B09089EA06
S214001B40000084F8B10094F8B100484084F8B20070
S214001B50A95C94F8BC00484084F8BC0094F8B20035
S214001B60504084F8B30015F80E1094F8B4004840BE
S214001B7084F8B40094F8B40094F8BF10584084F881
S214001B80B50094F8B500464086EA0B0084F8B70026
S214001B9084F8B66094F8B800695C484084F8B800E9
S214001BA094F8B80080EA0C0989EA070787EA0E006D
S214001BB084F8BB0084F8B99084F8BA7094F8BC0036
S214001BC080EA080894F8BE0084F8BD8088EA000A17
S214001BD094F8BF0084F8BEA08AEA000B84F8BFB071
S214001BE0FFF7D8FB94F8A00094F8B01094F8B4204F
S214001BF094F8B53094F8ABC094F8BCE04840285C44
S214001C0094F8B11084F8A00094F8A1004840285C2D
S214001C1094F8B21084F8A10094F8A2004840285C1A
S214001C2094F8A31084F8A20094F8B3004140695CCD
S214001C3084F8A31094F8A4104A4094F8A5105940CC
S214001C40695C94F8A73084F8A41094F8A610714044
S214001C50695C84F8A51094F8B7104B40EB5C84F8E8
S214001C60A630AA5C94F8B83084F8A72094F8A82088
S214001C705A4094F8AA307B40EB5C84F8A830AA5C03
S214001C8084F8AA2094F8A92089EA020394F8BB20D5
S214001C9082EA0C0C15F80CC084F8A9C094F8AEC003
S214001CA0EB5C84F8AB308AEA0C0C15F80CC094F8A0
S214001CB0AF3084F8AFC08BEA030394F8ADC088EA6F
S214001CC00C0C15F80CC084F8AEC094F8ACC08EEAC4
S214001CD00C0C15F80CC084F8ADC0EB5C84F8AC3086
S214001CE0695C94F8B03081F02001594084F8B01057
S214001CF094F8B03094F8B110594084F8B11094F8C4
S214001D00B13094F8B210594084F8B210285C94F8B8
S214001D10B21080EA0E0084F8BC0094F8B300484085
S214001D2084F8B300A95C94F8B400484084F8B40082
S214001D3094F8B41094F8B500484084F8B50094F8C8
S214001D40B500464094F8B70084F8B660704084F852
S214001D50B70094F8B80015F80B10484084F8B8009F
S214001D6094F8B80080EA090989EA070787EA0200BA
S214001D7084F8BB0084F8B99084F8BA7094F8BC0074
S214001D8080EA080888EA0A0A8AEA0B0B84F8BD800B
S214001D9084F8BEA084F8BFB0FFF7FCFA94F8A00061
S214001DA094F8B01094F8B42094F8B53094F8ABC01A
S214001DB094F8BCE04840285C94F8B11084F8A00081
S214001DC094F8A1004840285C94F8B21084F8A1006A
S214001DD094F8A2004840285C94F8A31084F8A20067
S214001DE094F8B3004140695C84F8A31094F8A410FA
S214001DF04A4094F8A5105940695C94F8A73084F8D6
S214001E00A41094F8A6107140695C84F8A51094F8A4
S214001E10B7104B40EB5C84F8A630AA5C94F8B83058
S214001E2084F8A72094F8A8205A4094F8AA307B405B
S214001E30EB5C84F8A830AA5C84F8AA2094F8A92061
S214001E4089EA020394F8BB2082EA0C0C15F80CC051
S214001E5084F8A9C094F8AEC0EB5C84F8AB308AEA8C
S214001E600C0C15F80CC094F8AF3084F8AFC08BEAB1
S214001E70030394F8ADC088EA0C0C15F80CC084F87F
S214001E80AEC094F8ACC08EEA0C0C15F80CC084F802
S214001E90ADC0EB5C84F8AC30695C94F8B03081F08F
S214001EA04001594084F8B01094F8B03094F8B1105E
S214001EB0594084F8B11094F8B13094F8B2105940F3
S214001EC084F8B210285C94F8B21080EA0E0084F809
S214001ED0BC0094F8B300484084F8B300A95C94F8BA
S214001EE0B400484084F8B40094F8B41094F8B500F0
S214001EF0484084F8B50094F8B500704084F8B60001
S214001F0094F8B61094F8B700484084F8B70094F8F0
S214001F10B80015F80B10484084F8B80094F8B800DC
S214001F2080EA090084F8B90094F8B900784084F88B
S214001F30BA0094F8BA1081EA020084F8BB0094F85C
S214001F40BC0080EA080084F8BD0094F8BD0080EA72
S214001F500A0686EA0B0784F8BE6084F8BF70FFF7AF
S214001F6019FA94F8A00094F8B01094F8B42094F8F5
S214001F70B53094F8BAC094F8BDE04840285C94F8B0
S214001F80B11084F8A00094F8A1004840285C94F8AA
S214001F90B21084F8A10094F8A2004840285C94F897
S214001FA0A31084F8A20094F8B3004140695C84F85A
S214001FB0A31094F8A410514094F8A5205A40AA5CA7
S214001FC094F8B63084F8A42094F8A6205A40AA5C68
S214001FD094F8A73084F8A52094F8B7205340EB5C1B
S214001FE084F8A630695C94F8B83084F8A71094F8A2
S214001FF0A810594094F8AA308CEA0303EB5C94F8D6
S214002000ABC084F8A830695C94F8B93084F8AA109C
S21400201094F8A9104B4094F8BB1081EA0C0C15F804
S2140020200CC084F8A9C094F8AEC0EB5C84F8AB3062
S21400203086EA0C0C15F80CC094F8AF3084F8AFC0E4
S2140020407B4094F8ADC08EEA0C0C15F80CC094F8E2
S214002050BCE084F8AEC094F8ACC08EEA0C0C15F860
S2140020600CC084F8ADC0EB5C84F8AC30AA5C94F885
S214002070B03082F080025A4084F8B02094F8B03035
S21400208094F8B12083EA020894F8B22084F8B1806C
S21400209088EA020984F8B290285C80EA0E0084F888
S2140020A0BC0094F8B30089EA000084F8B300695CC9
S2140020B094F8B400484084F8B40094F8B41094F847
S2140020C0B50081EA000A94F8B60084F8B5A08AEA5A
S2140020D0000B84F8B6B094F8B7008BEA000084F8DA
S2140020E0B700E95D94F8B800484084F8B80094F862
S2140020F0B81094F8B900484084F8B90094F8B910BC
S21400210094F8BA00484084F8BA0094F8BA1094F8E4
S214002110BB00484084F8BB0094F8BC1094F8BD009F
S214002120484084F8BD0094F8BD00704084F8BE00B6
S21400213094F8BE00784084F8BF00FFF72BF994F8B7
S214002140A00094F8B01094F8B42094F8A73094F84F
S214002150BA6094F8BE704840285C94F8A31084F8DF
S214002160A00094F8A10088EA0000285C84F8A1008A
S21400217094F8A20089EA0000285C84F8A20094F88B
S214002180B3004140695C84F8A31094F8A410514051
S21400219094F8A5208AEA0202AA5C84F8A42094F89F
S2140021A0A6208BEA0202AA5C84F8A52094F8B72041
S2140021B05340EB5C84F8A630695C94F8B83084F839
S2140021C0A71094F8A810594094F8AA307340EB5C16
S2140021D094F8AB6084F8A830695C94F8B93084F859
S2140021E0AA1094F8A9104B4094F8BB104E40AE5D70
S2140021F084F8A960EB5C94F8BF6084F8AB3094F880
S214002200AF30734094F8AE607E40AE5D94F8BD701B
S21400221084F8AF6094F8AD607E40AE5D94F8BC7014
S21400222084F8AE6094F8AC607E40AE5D84F8AD6035
S214002230EB5C84F8AC30AA5C94F8B03082F01B02F9
S2140022405A4084F8B02094F8B02082EA080284F855
S214002250B12094F8B12082EA090284F8B220285C02
S21400226094F8B220784084F8BC0094F8B30050404C
S21400227084F8B300695C94F8B400484084F8B4006D
S21400228094F8B40080EA0A0084F8B50094F8B50023
S21400229080EA0B0084F8B60094F8B61094F8B700FD
S2140022A0484094F8BF1084F8B700695C94F8B8000A
S2140022B081EA000694F8B90094F8BC1084F8B86077
S2140022C086EA000794F8BA0084F8B97087EA00082E
S2140022D094F8BB0084F8BA8088EA000084F8BB0053
S2140022E094F8BD0081EA000994F8BE0084F8BD9019
S2140022F089EA000A94F8BF0084F8BEA08AEA000BB8
S21400230084F8BFB0FFF746F894F8A00094F8B01031
S21400231094F8B42094F8B53094F8ABC094F8BCE0C8
S2140023204840285C94F8B11084F8A00094F8A10006
S2140023304840285C94F8B21084F8A10094F8A200F3
S2140023404840285C94F8A31084F8A20094F8B300E0
S2140023504140695C84F8A31094F8A410514094F8A6
S214002360A5205A40AA5C94F8B63084F8A42094F8C5
S214002370A6205A40AA5C94F8A73084F8A52094F8C2
S214002380B7205340EB5C84F8A630695C94F8AA301A
S21400239084F8A71088EA030394F8A810EB5C84F886
S2140023A0A8307140695C84F8AA1094F8A91087EAEE
S2140023B0010394F8BB1081EA0C0C15F80CC084F8E5
S2140023C0A9C094F8AEC0EB5C84F8AB308AEA0C0C7B
S2140023D015F80CC094F8AF3084F8AFC08BEA03034E
S2140023E094F8ADC089EA0C0C15F80CC084F8AEC0A1
S2140023F094F8ACC08EEA0C0C15F80CC084F8ADC08E
S214002400EB5C84F8AC30AA5C94F8B03082F036020C
S2140024105A4084F8B02094F8B03094F8B1205A406E
S21400242084F8B12094F8B2305A4094F8B33084F867
S214002430B2205A40285C84F8B32080EA0E0094F854
S214002440B42084F8BC0080EA0900695C514084F836
S214002450B41094F8B520514084F8B51094F8B6201E
S214002460514084F8B61094F8B720514084F8B7105D
S21400247015F80B1094F8BB2084F8BD00714084F862
S214002480B81080EA0A00794084F8B91084F8BE00D3
S21400249081EA080184F8BA1080EA0B00514084F8FB
S2140024A0BB1084F8BF0060E00FF258412CC901A8A9
S2140024B021462CC09DF8042004F1B000FEF7A0FED3
S2140024C00DF1050504F110065FF0090715F8012B5C
S2140024D03146A6F11000FEF793FE10367F1EF5D1AA
S2140024E004F1A00004F190010422037811F8015BC6
S2140024F06B40037011F8015B43786B40437011F832
S214002500015B83786B40837011F8015BC3786B4086
S214002510C370001D521EE8D1FFF700F95FF00905F1
S21400252004EB051104F1A00010390422037811F819
S214002530016B7340037011F8016B4378734043706E
S21400254011F8016B83787340837011F8016BC378C0
S2140025507340C370001D521EE8D1FEF7C3FFFFF79D
S214002560DDF86D1EEDB2002DDAD194F8A00094F8D7
S214002570B01048400499087094F8A10094F8B1107F
S21400258048400499087194F8A20094F8B2104840A4
S2140025900499087294F8A30094F8B310484004997C
S2140025A0087394F8A40094F8B4104840049948704E
S2140025B094F8A50094F8B51048400499487194F82A
S2140025C0A60094F8B61048400499487294F8A700FC
S2140025D094F8B71048400499487394F8A80094F803
S2140025E0B81048400499887094F8A90094F8B91077
S2140025F048400499887194F8AA0094F8BA104840A4
S2140026000499887294F8AB0094F8BB10484004997B
S214002610887394F8AC0094F8BC1048400499C870CD
S21400262094F8AD0094F8BD1048400499C87194F829
S214002630AE0094F8BE1048400499C87294F8AF00F3
S21400264094F8BF1048400499C87305B0BDE8F08FF1
S2140026509C0CFF1F2DE9FF4F95B04FF002099DF827
S2140026608C00DDF89080DDF894A0C0F10F0080B2F9
S21400267012909DF88C00C0F10F010A91BDF8581019
S214002680494211910DEB00011091991CADF82610EE
S214002690190AADF82410BDF85810090AADF8221032
S2140026A09DF89C10891E89008DF8201004A9084406
S2140026B00C909DF89C000B900D900BE069465046E0
S2140026C016F0C6F9002FA244A34440F0E780119804
S2140026D050441590A9F101001FFA80F9B9F1000FD6
S2140026E0289803D0C00700F1B48002E0C00740F18C
S2140026F005812698002800F0A9800D980428C0F2CD
S214002700A5809DF88C009DF88C202299C0F10E00C3
S2140027108DF810000DF111001CF004FF0C980A9AB9
S2140027200021401C1CF064FFBDF8600000B1402092
S2140027309DF820209DF81010104308438DF81000D7
S214002740BDF858008DF81F00BDF822008DF81E0059
S214002750BDF86000E8B10E28B4BF83464FF00E0BFC
S2140027601022002168461CF043FF17995A460DF1C7
S21400277002001CF0D7FEBDF86000BDF826408DF8BC
S21400278001000127BDF824008DF800000025EB4667
S21400279008E0BDF85840DDF854B00027002C14BF00
S2140027A00125022504AA414604A815F099FF022D2A
S2140027B026DAC5F102056D1E594604A8102CACBFDA
S2140027C010262646F6B2324616F042F904AA4146CC
S2140027D004A815F085FFA41B3800A4B203D0DDF8CA
S2140027E05CB00027B61EF6B2002CB344E4D1BDF8A8
S2140027F0580000281EBF0446DDF854B0002DDAD17C
S2140028009DF88C009DF88C202299C0F10E008DF862
S21400281000000DF101001CF085FE10980A9A0021B8
S214002820401C1CF0E5FE6A464146684615F058FF17
S2140028309DF89C2004A9684616F00AF928980B9A79
S214002840C007269869462ED41CF06CFEB9F1000F1E
S21400285054D0BDF8580000283FF43CAF0746129D00
S2140028609DF88C2022990020CDE90E009DF88C0062
S214002870C0F10E008DF810000DF111001CF052FE94
S2140028800C980A9A0021401C1CF0B2FE04A869426B
S2140028904618DDF854B0002F3FF419AF102FACBF28
S2140028A010243C4607E01CF07DFE0028CED1012017
S2140028B019B0BDE8F08FDDE90E01401C61F1FF3173
S2140028C0CDE90E012A460EA906F110001CF046FEC0
S2140028D06A46414604A815F003FF15983F1B50456D
S2140028E0BFB2E2B23FF4EAAE5946684616F0B0F818
S2140028F02246694650461CF015FEE3E6002019B055
S214002900BDE8F08F01020408102040801B3600004E
S214002910637C777BF26B6FC53001672BFED7AB7697
S214002920CA82C97DFA5947F0ADD4A2AF9CA472C042
S214002930B7FD9326363FF7CC34A5E5F171D83115AF
S21400294004C723C31896059A071280E2EB27B275D0
S21400295009832C1A1B6E5AA0523BD6B329E32F8448
S21400296053D100ED20FCB15B6ACBBE394A4C58CF40
S214002970D0EFAAFB434D338545F9027F503C9FA814
S21400298051A3408F929D38F5BCB6DA2110FFF3D2E2
S214002990CD0C13EC5F974417C4A77E3D645D197396
S2140029A060814FDC222A908846EEB814DE5E0BDB90
S2140029B0E0323A0A4906245CC2D3AC629195E479C7
S2140029C0E7C8376D8DD54EA96C56F4EA657AAE0821
S2140029D0BA78252E1CA6B4C6E8DD741F4BBD8B8ABC
S2140029E0703EB5664803F60E613557B986C11D9E22
S2140029F0E1F8981169D98E949B1E87E9CE5528DF99
S214002A008CA1890DBFE6426841992D0FB054BB16C4
S214002A1000281DBF0949086000200120704710B536
S214002A20064C07492068A1FB00016FF00402002352
S214002A3000F01EF82260104610BD0000C005FF1F03
S214002A40C160A81010F8012B11F8013B012A28BF1D
S214002A509A42F7D0D01A70479140031C90409C468B
S214002A60203A9340194352426346D3401943704775
S214002A704BB942B9002908BF002802D04FF0FF31F9
S214002A80084600F03BB882B0EC462DE9005000F056
S214002A901DF8DDF804E002B00CBC70472DE9704369
S214002AA0069E14461D468046894600F029F804FB1B
S214002AB001F300FB0533A4FB00451D44B8EB0404FA
S214002AC069EB0505C6E90045BDE870832DE970434E
S214002AD0069E1446804689461D4600F05DF900FBBA
S214002AE005F504FB0153A0FB04451D44B8EB0404A4
S214002AF069EB0505C6E90045BDE87083704700BF71
S214002B0000292DE9F00FC0F29F800024002BC0F2B0
S214002B109680154606460F46002B3ED18A4257D968
S214002B20B2FA82F34BB1C3F1200201FA03F720FA9E
S214002B3002F29D40174300FA03F6290CB7FBF1F2A8
S214002B40330C01FB127CA8B243EA0C4700FB02F3ED
S214002B50BB4209D97F1902F1FF3C80F00181BB42DC
S214002B6040F2FE80023A2F44FF1AB7FBF1F3B6B2EA
S214002B7001FB137146EA014100FB03F0884208D9C5
S214002B80491903F1FF3780F0ED80884240F2EA8071
S214002B90023B43EA0242002303E08B420AD90023A9
S214002BA01A461046194614B1404261EB4101BDE891
S214002BB0F00F7047B3FA83F8B8F1000F40F0848046
S214002BC08B4202D3824200F2DE8000230122E8E735
S214002BD012B90123B3FBF2F5B5FA85F2002A39D112
S214002BE07F1B280C1FFA85FC0123B7FBF0F1320C83
S214002BF000FB117742EA07470CFB01F2BA4207D9FD
S214002C007F1901F1FF3802D2BA4200F2C180414674
S214002C10BF1AB7FBF0F2B6B200FB127046EA0040ED
S214002C200CFB02FC844507D9401902F1FF3702D29B
S214002C30844500F2AB803A4642EA0142B1E7E443FB
S214002C40524263EB430364E7404261EB41014FF0BD
S214002C50FF345BE79540C2F1200327FA03F1280C06
S214002C6026FA03F39740B1FBF0F81F433B0C00FB3A
S214002C7018111FFA85FC43EA01410CFB08F38B424E
S214002C8006FA02F608D9491908F1FF3279D28B42C2
S214002C9077D9A8F102082944C91AB1FBF0F3BFB2EC
S214002CA000FB131147EA01470CFB03F2BA4207D9AF
S214002CB07F1903F1FF3160D2BA425ED9023B2F443E
S214002CC0BF1A43EA084390E7C8F1200203FA08FC5B
S214002CD025FA02F343EA0C0C4FEA1C4921FA02F3E8
S214002CE001FA08F720FA02F2B3FBF9F1174309FBE1
S214002CF011333A0C1FFA8CFB42EA03430BFB01FA32
S214002D009A4505FA08F008D913EB0C0301F1FF32D7
S214002D1035D29A4533D902396344CAEB0303B3FB71
S214002D20F9F209FB1233BFB247EA03470BFB02F97D
S214002D30B94508D917EB0C0702F1FF331BD2B9458A
S214002D4019D9023A674442EA0145A5FB0001C9EBDE
S214002D5007078F424FF000030AD305D02A4620E724
S214002D60624601E73B4614E706FA08F68642F5D2C5
S214002D706A1E002315E71A46E5E70B46A0E711464C
S214002D80CBE7904688E7434642460AE7023A53E7CF
S214002D9002392F443CE700BF2DE9F00F14460546E4
S214002DA00E46002B43D18A4253D9B2FA82F757B166
S214002DB0C7F1200620FA06F601FA07F302FA07F42E
S214002DC01E4300FA07F5210CB6FBF1F22B0C01FBB3
S214002DD01267A0B243EA074600FB02F3B34209D9E2
S214002DE0361902F1FF3780F0F680B34240F2F380E6
S214002DF0023A2644F61AB6FBF1F3ADB201FB1361B4
S214002E0045EA014100FB03F0884208D9091903F19D
S214002E10FF3680F0E280884240F2DF80023B43EAE1
S214002E200242002310461946BDE8F00F70478B4259
S214002E304AD8B3FA83F6002E4DD18B4202D3824293
S214002E4000F2D6800023012210461946BDE8F00F96
S214002E50704712B90124B4FBF2F4B4FA84F2002AE3
S214002E607CD1091B260CA7B20123B1FBF6F02A0C75
S214002E7006FB101142EA014107FB00F28A4207D91D
S214002E80091900F1FF3C02D28A4200F2C380604674
S214002E90891AB1FBF6F2ADB206FB121145EA0145FE
S214002EA007FB02F7AF4208D92C1902F1FF3180F078
S214002EB09680A74240F29380023A42EA00421046C9
S214002EC01946BDE8F00F704700231A46104619460B
S214002ED0BDE8F00F7047C6F1200522FA05F4B340AE
S214002EE01C434FEA144821FA05F301FA06F720FAC4
S214002EF005F5B3FBF8FC2F4308FB1C333D0C1FFA0B
S214002F0084FA45EA03430AFB0CF9994502FA06FBE4
S214002F1004D91B190CF1FF326DD39446C9EB030399
S214002F20B3FBF8F508FB1533BFB247EA03470AFBC5
S214002F3005F8B84504D93F1905F1FF3361D31D469E
S214002F4045EA0C4CACFB0B23C8EB07079F424FF03F
S214002F50000549D345D062462B4663E79440C2F14C
S214002F60200321FA03FC260C20FA03F301FA02F5EB
S214002F70BCFBF6F843EA05010B0C06FB18CCA7B21F
S214002F8043EA0C4C07FB08F3634500FA02F509D93F
S214002F901CEB040C08F1FF323AD2634538D9A8F18D
S214002FA00208A444C3EB0C0CBCFBF6F389B206FB88
S214002FB013CC41EA0C4107FB03F28A4207D90919F0
S214002FC003F1FF3022D28A4220D9023B2144891ADB
S214002FD043EA084349E73A460CE733461FE70A4602
S214002FE06BE7B0409042B6D20CF1FF32002319E7EF
S214002FF03346324616E799458FD9ACF1020C234486
S2140030008CE7B8459BD9023D274499E70346DEE79F
S2140030109046C7E7023821443AE700BF0FB480B5B0
S21400302082B000AF0B4B1B78002B02D14FF0FF3362
S21400303009E007F114033B60074839693A6800F075
S214003040D5F878607B6818460837BD46BDE88040EE
S21400305004B070475C0DFF1F5D30000080B582B085
S21400306000AF78600A4B1B78002B02D14FF0FF337D
S21400307009E0074B9B68064A51683A1D0846114608
S21400308001229847012318460837BD4680BD00BF79
S2140030905C0DFF1F80B586B000AFB9607A603B60FC
S2140030A00346FB73BB687B610CE097F90F203B6A15
S2140030B0104698473B681B685A1C3B681A607B6939
S2140030C001337B617A697B689A42EEDB1837BD462E
S2140030D080BD00BF80B48DB000AFF860B9607A6084
S2140030E03B600023FB61FB68BB61BB695A1CBA618D
S2140030F000221A707B68002B36D0BB681B68FB6208
S214003100FB6A002B07D1BB6930221A70FB690133BA
S214003110FB61FB6964E023E0FA6A3B6892FBF3F329
S2140031207B617B693A6802FB03F3FA6AD31ABB62D7
S214003130BB6A002B06DABB6A3B623B6AC3F130030C
S214003140BB6202E0BB6A3033BB627B69FB62BB6971
S2140031505A1CBA61BA6AD2B21A70FB690133FB61B3
S214003160FB6A002BD8D13AE0BB681B687B627B6A9F
S214003170002B07D1BB6930221A70FB690133FB6153
S214003180FB692DE028E03B687A6AB2FBF3F33B610B
S2140031903B683A6902FB03F37A6AD31A3B623B6ADE
S2140031A0092B03D83B6A30333B620AE097F8383085
S2140031B0002B01D0412300E061233A6A13440A3B06
S2140031C03B623B697B62BB695A1CBA613A6AD2B2FF
S2140031D01A70FB690133FB617B6A002BD3D1FB6954
S2140031E018463437BD465DF8047B704780B59CB002
S2140031F002AFF860B9607A6000233B660023FB6587
S2140032000023BB61002387F84A3000233B61BB687C
S2140032107B6693E17B6C252B06D0FB68786C984721
S214003220BB690133BB6186E1012387F84B3000237D
S2140032307B650023BB651CE07B6E01337B667B6E83
S2140032401B785BB27B647B6C2F2B0DDD7B6C392B84
S2140032500ADC7A6D13469B0013445B001A467B6CAF
S2140032601344303B7B6504E07B6E013B7B660123A9
S214003270BB65BB6D002BDFD006233B657B6E013341
S2140032807B667B6E1B785BB22E2B25D100233B65BD
S2140032900023BB651CE07B6E01337B667B6E1B7870
S2140032A05BB27B647B6C2F2B0DDD7B6C392B0ADCD1
S2140032B03A6D13469B0013445B001A467B6C13441E
S2140032C0303B3B6504E07B6E013B7B660123BB65C0
S2140032D0BB6D002BDFD002E07B6E013B7B667B6E16
S2140032E001337B667B6E1B785BB27B647B6C642BE6
S2140032F01BD07B6C692B18D07B6C662B15D07B6C37
S214003300462B12D07B6C782B0FD07B6C582B0CD0B6
S2140033107B6C6F2B09D07B6C622B06D07B6C702B82
S21400332003D07B6C752B40F0C5807B6C642B02D081
S2140033307B6C692B17D17B681A1D7A601B687B61D2
S21400334007F11C0207F1140397F84B100091104682
S214003350194601220A23FFF7BDFEF86507F11C0295
S214003360FB6D13443B667B6C582B02D07B6C782B32
S2140033701DD17B6C782B02D1002387F84B307B68FD
S2140033801A1D7A601B683B6107F11C0207F11003E7
S21400339097F84B1000911046194600221023FFF7AD
S2140033A099FEF86507F11C02FB6D13443B667B6CC7
S2140033B06F2B08D07B6C622B05D07B6C702B02D0F9
S2140033C07B6C752B59D17B681A1D7A601B683B6134
S2140033D07B6C623B132B3BD801A252F823F000BF54
S2140033E039340000513400005134000051340000DC
S2140033F051340000513400005134000051340000B4
S21400340051340000513400005134000051340000A3
S21400341051340000313400004134000051340000C3
S214003420513400005134000051340000493400008B
S214003430082387F84A300CE0022387F84A3008E071
S214003440102387F84A3004E00A2387F84A3000E061
S21400345000BF97F84A3007F11C0107F1100297F8F1
S2140034604B000090084611460022FFF733FEF86531
S21400347007F11C02FB6D13443B667A6D07F11803D7
S214003480F96800912020F96DFFF704FE3B6E002BD3
S2140034900FD00AE03B6E5A1E3A661B785AB2FB689B
S2140034A010469847BB690133BB613B6E1B78002B07
S2140034B0F0D140E07B6C632B0DD17B681A1D7A60DF
S2140034C01B68DBB25BB23B64FB68386C9847BB6931
S2140034D00133BB612FE07B6C732B26D17B681A1DF2
S2140034E07A601B68FB64FB6C002B24D0F86C4DF0F4
S2140034F041FE0346FB657A6D07F11803F9680091F3
S2140035002020F96DFFF7C6FD0AE0FB6C5A1CFA6432
S2140035101B785AB2FB6810469847BB690133BB61FB
S214003520FB6C1B78002BF0D105E0FB68786C9847A5
S214003530BB690133BB617B6E01337B667B6E1B7898
S2140035405BB27B647B6C002B7FF464AEBB69184671
S2140035506837BD4680BD00BF80B400AF0B4B0B4A3A
S214003560D2F8882042F47002C3F88820084B4CF248
S2140035702052DA81064B4DF62812DA81044B4FF4BE
S214003580E9721A80BD465DF8047B704700ED00E0E6
S2140035900020054080B500AF1E4B1F4A1A601E482B
S2140035A014211AF053FC1D4B00221A701C4B0022EB
S2140035B01A701C4B1C4A1A601C4B00221A601B4BCC
S2140035C01B68184609F0D4FA03F06CF90346012B81
S2140035D006D1174B002019460022002315F0A2FD45
S2140035E00C4B1A68114B1B681046194608F048FA2F
S2140035F00E4B1A680F4B1B681046194626F010FF34
S2140036000346002B04D100F09BF9002009F0D0FE01
S21400361080BD00BF940DFF1F6C36FF1F700DFF1F8F
S214003620740DFF1F5C36FF1F593C0000C805FF1FC6
S214003630A56800005C06FF1F80B582B000AF0123BE
S214003640FB7113E00C4821F0A5F90346FB710B4B08
S2140036501B78002B0AD1084B1B68002B06D0064BA4
S2140036601B691846012115F0C5FE02E0FB79012B07
S214003670E8D00837BD4680BD6C36FF1F18630500CE
S21400368080B584B000AF78607B68FB60FB68DB6861
S214003690BB60BB68002B05D0B86803F079FDB8683E
S2140036A01AF042FBF8681AF03FFB1037BD4680BDA3
S2140036B090B585B000AF78607B68FB60FB681B68E0
S2140036C0544A934235D0534A934217D8524A9342AB
S2140036D070D0514A934207D803F1FC3303F2023309
S2140036E0012B00F28A8030E04C4A93421DD04B4AB0
S2140036F0934230D34A4A93421BD07EE0494A9342D3
S21400370061D0484A934206D8474A934252D0474A25
S214003710934243D071E0464A934267D0444A93426C
S2140037205DD3444A934235D067E0002000F0AEFAFD
S21400373064E0414B1B68414A0021D154012000F04F
S214003740A5FA3F4B00221A7058E0FB681B68184623
S21400375000F0D6FA52E0042000F098FA394A3A4BC4
S21400376014460FCB84E80F00334B1B68334A012105
S214003770D154364B00221A702F4B1B68184628F07F
S214003780EDFD2D4B1B68184608F08AF92C4B0122DC
S2140037901A7033E02A4B00221A702FE0264B1B6863
S2140037A0264A0021D154264B00221A70022000F02F
S2140037B06DFA23E0204B1B68204A0021D1540520D7
S2140037C000F064FA1AE0032000F060FA1C4B0122B5
S2140037D01A70FB685B6818463BF02EFD0EE006206C
S2140037E000F054FA164B01221A7007E0042000F08D
S2140037F04DFA134B01221A7000E000BFFB68DB682D
S21400380018461AF091FAF8681AF08EFA1437BD4680
S21400381090BD00BF07000503010005030300050374
S214003820040005030A000503080005030900050354
S2140038300C00050311000503C805FF1F740DFF1FCC
S2140038408136FF1F800DFF1FE09300206C0DFF1FC9
S214003850F0B591B002AF78607B687B637B6B1A68CB
S214003860334B1344112B5DD801A252F823F000BF4E
S21400387025390000253900002539000025390000CB
S214003880B9380000C1380000C138000025390000F2
S21400389025390000C9380000253900002539000008
S2140038A0253900002539000025390000253900009B
S2140038B02539000025390000012000F0E7F931E045
S2140038C0002000F0E3F92DE01A4A07F12C031068F7
S2140038D0516803C3184B1C4607F1080504F1200E77
S2140038E02E462346186859689A68DB680FC6103457
S2140038F010357445F4D12B46224612781A700F4BB9
S21400390018683B7A07F12C0107F1080201320124FE
S214003910009440F0FFFE094B1B681846012140F05A
S2140039201DFD00BF786B1AF0FFF93C37BD46F0BDB1
S214003930FFFFF9FC301C0500381C0500C805FF1FFA
S21400394080B596B002AF0F4B07F108011A46482320
S214003950084611461A464DF0CFFB0B4A3B1D106831
S21400396018603A1D07F1080309210091002011464E
S214003970002244F075FB03461A46044B1A70503773
S214003980BD4680BD5C1C0500A41C0500CD05FF1FC0
S21400399080B582B000AF7860044B1B6818460121E2
S2140039A028F0CEFB0837BD4680BD00BFC805FF1F08
S2140039B080B582B000AF78600C4B1B78002B11D01E
S2140039C00B4B01221A700B4B1B78184611F0D0FCDB
S2140039D0084BFF221A70084B1B68084800211A463D
S2140039E020F0B8FF0837BD4680BD00BF6C0DFF1F36
S2140039F06D0DFF1FCE05FF1F940DFF1F91390000B0
S214003A0080B582B000AF7860344B1B68344AD35C14
S214003A10002B0BD0314B1B68314AD35C052B05D0ED
S214003A202E4B1B682E4AD35C022B27D1012000F0B8
S214003A302DF92C4B01221A702B4B1B78FF2B05D12E
S214003A4011F072FC03461A46274B1A70264B1B7859
S214003A50FF2B09D0244B1B7818464FF44871234A95
S214003A60002311F0E9FD08E0214B01221A701B4BE0
S214003A701B681846012128F063FB2BE0194B1B78C6
S214003A80002B27D0174B00221A70194B1B78002BDF
S214003A901DD1124B1A68174B53F8223093F82A3070
S214003AA0002B14D1104B1B78FF2B07D00E4B1B7826
S214003AB0184611F05DFC0C4BFF221A70032000F034
S214003AC0E5F8064B1B68184628F07EF902E00A4B1C
S214003AD001221A700837BD4680BD00BFC805FF1F0B
S214003AE0700DFF1F6C0DFF1FCE05FF1FB1390000C4
S214003AF06D0DFF1F241DFF1F780DFF1F80B582B0C0
S214003B0000AF78607B68013B0B2B22D801A252F8ED
S214003B1023F000BF453B0000453B0000453B00004E
S214003B20453B0000533B0000533B0000533B000066
S214003B30533B00004D3B00004D3B00004D3B00005A
S214003B404D3B00007868FFF75BFF03E00AF054FC8B
S214003B5000E000BF0837BD4680BD00BF80B582B01C
S214003B6000AF78607B68013B0B2B5ED801A252F851
S214003B7023F000BFA53B0000B53B0000C53B00009E
S214003B80D53B0000E53B0000F53B0000053C00008F
S214003B90153C0000253C0000253C0000253C0000AC
S214003BA0253C0000234B1B68234800211A4620F0C2
S214003BB0D1FE3BE01F4B1B68204800211A4620F030
S214003BC0C9FE33E01B4B1B681D4800211A4620F037
S214003BD0C1FE2BE0174B1B681A4800211A4620F03E
S214003BE0B9FE23E0134B1B68174800211A4620F045
S214003BF0B1FE1BE00F4B1B68144800211A4620F04C
S214003C00A9FE13E00B4B1B68114800211A4620F052
S214003C10A1FE0BE0074B1B680E4800211A4620F059
S214003C2099FE03E00AF0E8FB00E000BF0837BD4657
S214003C3080BD00BF940DFF1F0D3F0000D93D000062
S214003C407140000025410000613F0000B9410000BE
S214003C505D4100008D41000080B584B000AF786003
S214003C607B68FB60074B1B68074AD35C002B03D1BD
S214003C70F868FFF743FF02E0F868FFF76FFF1037BA
S214003C80BD4680BDC805FF1F740DFF1F80B582B0FE
S214003C9000AF0346FB71154B1A68154B53F82230DC
S214003CA093F83630062B0CD1104B1B68114AD35CA8
S214003CB0082B06D0104B1B68002B02D00E4B0022A0
S214003CC01A600A4B1B680B4AF979D154074B1B68DC
S214003CD00A4AD25C054B1B680649CB5C104619465F
S214003CE009F0F8F80837BD4680BD00BFC805FF1FBD
S214003CF0241DFF1F700DFF1F900DFF1F740DFF1F6B
S214003D0080B582B000AF7860184B1B78002B29D0A6
S214003D107A68174B9A421ED1164B1B78002B0DD093
S214003D20154B1B78002B09D1104B01221A70134B30
S214003D301B681846012128F003FA13E00E4B1B7887
S214003D40002B04D00D4B1B68184628F03DF8074B97
S214003D5000221A7006E07A68094B9A4202D1034B99
S214003D6000221A700837BD4680BD00BF6D0DFF1FCC
S214003D7003000303CC05FF1F780DFF1FC805FF1FB8
S214003D800200030380B584B000AFB9607A603B6080
S214003D900346FB73FB7B012B14D17B685B6B5A6875
S214003DA07B685B6B1B78104608491A461BF0FAFBCB
S214003DB00346002B06D0064B1B68064800211A4611
S214003DC020F0C8FD1037BD4680BD00BF84530500F7
S214003DD0940DFF1FD93D000080B588B000AF786015
S214003DE00023BB6109F00CFB7861254B1B68184665
S214003DF026F090FA38613B6993F83E301846214920
S214003E0036F0E0F90346002B2BD11F4B1B781846E3
S214003E1043F0B6FBB861BB69002B22D00223FB77C8
S214003E20BB6900229A62BB691846164910221BF02D
S214003E3079FB78694DF09EF9F860B869134944F04B
S214003E40A1F8104B1B78FF2B04D00123FB77BB692E
S214003E500F4A9A62FB7FB86919467A69FB6843F095
S214003E6085FE0C4811F072FF786911F06FFF11F0B3
S214003E7033FF786919F058FF2037BD4680BD00BF74
S214003E80C805FF1F800DFF1FCD05FF1F80530500CF
S214003E90853D0000A81C050090B589B000AF78608D
S214003EA00B46FB70FF23FB77154B1B78184643F039
S214003EB067FBB861BB69002B1CD0124B07F10804E6
S214003EC00FCB84E80F00BB6900229A62BA6907F13B
S214003ED008031046194610221BF024FBB8690A494D
S214003EE044F050F8FB78B86902217A6843F03EFE49
S214003EF00346FB77FB7F18462437BD4690BD00BFC0
S214003F00CD05FF1FE09300208853050080B584B0E0
S214003F1000AF78600F4A07F1080392E803001860C4
S214003F200433198002330A0C1A7007F10803184686
S214003F300721FFF7B1FF0346002B07D1064B1B688E
S214003F4018460121054A00232EF07CFE1037BD4698
S214003F5080BD00BFAC1C0500C805FF1F800DFF1FFD
S214003F6080B584B000AF78600A4A07F1080392E88B
S214003F70030083E8030007F1080318460821FFF74B
S214003F808BFF0346002B02D1786800F015F9103736
S214003F90BD4680BDB41C050080B592B000AF786009
S214003FA00B46FB702C4B1B68184626F0B3F938649A
S214003FB03B6C93F83E301846284936F003F9034622
S214003FC0002B40D1264B1B78184643F0D9FAF863ED
S214003FD0FB6B002B36D007F10C030A201F491A464C
S214003FE02E2321F0F3F907F10C031E48194611F0B1
S214003FF0DFFE022387F84730FB6B00229A62FB6BDA
S2140040001846164910221BF08DFAF86B164943F035
S214004010B9FF124B1B78FF2B06D0012387F84730D9
S214004020FB6B124A9A6204E0FB787868194600F047
S21400403005F9FB7897F84720F86B11467A6843F045
S21400404095FD05E004E0FB787868194600F0F6F880
S2140040504837BD4680BD00BFC805FF1F800DFF1F47
S214004060CD05FF1FBC1C050078530500853D0000EC
S214004070B0B58AB002AF7860294B07F108041D4638
S2140040800FCD0FC42B681A46228002341B0C2370F7
S2140040900120FF2121F0AAFA0346FB770120FF2129
S2140040A021F0A4FA0346BB770120FF2121F09EFAF7
S2140040B003467B77FA7F4FF0000307F108014C1D9B
S2140040C001210091104619462246032320F09DFF49
S2140040D0BA7F4FF0000307F1080101F10A0401213D
S2140040E00091104619462246032320F08EFF7A7F61
S2140040F04FF0000307F1080101F10F0401210091C0
S214004100104619462246032320F07FFF07F10803D6
S21400411018461321FFF740FF2037BD46B0BD00BF4D
S214004120D81C0500B0B588B000AF78600A4B07F120
S2140041300C041D460FCD0FC42B681A46228002348D
S2140041401B0C237007F10C0318461321FFF724FFFE
S2140041502037BD46B0BD00BFD81C050080B584B072
S21400416000AF7860084A07F1080392E80300186079
S2140041700433198007F1080318460621FFF70CFFE1
S2140041801037BD4680BD00BFEC1C050080B586B06C
S21400419000AF7860074A07F10C0307CA83E80700F8
S2140041A007F10C0318460C21FFF7F6FE1837BD463C
S2140041B080BD00BFF41C050090B587B000AF7860E6
S2140041C0074B07F108040FCB84E80F0007F108033C
S2140041D00448194610221BF0A5F91C37BD4690BDB1
S2140041E0E0930020800DFF1F80B584B000AFB9605B
S2140041F07A603B600346FB73BB68002B0DD0FB7BED
S214004200002B0AD17B68B3F84830022B05D13B68F7
S214004210DBB2B868194600F011F8FB7B012B0AD018
S2140042207B6893F84730002B05D17868032100227D
S214004230002343F09BFC1037BD4680BD80B584B09C
S21400424000AF78600B46FB706A4B1B686A4A012118
S214004250D1546A4B00221A707868694902221BF012
S214004260A1F90346002B03D00720FFF70FFDBEE0A1
S2140042707868644903221BF095F90346002B03D0A7
S2140042800820FFF703FDB2E078685F4906221BF0BE
S21400429089F90346002B03D00A20FFF7F7FCA6E0B7
S2140042A078685A4905221BF07DF90346002B03D097
S2140042B00920FFF7EBFC9AE07868554903221BF0CB
S2140042C071F90346002B00F0878051484CF052FFEE
S2140042D003467A681344FB600023FB720023BB721C
S2140042E000237B720B233B7249484CF043FF034686
S2140042F0DBB2FA78D31AFB7035E0FB681B785BB24A
S214004300722B0AD1FB680133FB60FB78013BFB7024
S214004310F86820F050FE0346FB72FB681B785BB221
S214004320672B0AD1FB680133FB60FB78013BFB700F
S214004330F86820F040FE0346BB72FB681B785BB251
S214004340622B0AD1FB680133FB60FB78013BFB70F4
S214004350F86820F030FE03467B72FB78013BFB706A
S214004360FB680133FB60FB78002BC6D1F97ABA7A7A
S2140043707B7A084611461A4608F0C0FD3B7A184676
S214004380FFF784FC1B4B1A68224B53F8223093F835
S2140043903630062B1FD1FB7A002B1CD1BB7A002BA4
S2140043A019D17B7A002B16D11B4B1B68002B12D120
S2140043B011F072FB02460B4610461946174A4FF09C
S2140043C00003FEF755FB02460B46134603F13C027C
S2140043D0114B1A600BE00AE0786811490B221BF0BB
S2140043E0E1F80346002B02D00C20FFF74FFC1037F5
S2140043F0BD4680BDC805FF1F740DFF1F6C0DFF1F57
S214004400001D0500041D0500081D0500EC1C050028
S214004410101D0500241DFF1F900DFF1F40420F00BA
S214004420F41C050080B596B000AFB9607A603B60BA
S2140044300346FB7300237B6500233B650A23FB646E
S2140044407B68B3F84830012B07D108F0D9FF7865B0
S214004450786D4CF08FFE38653AE07B68B3F84830EC
S214004460022B35D1FB7B002B32D1BB68002B2FD023
S2140044707A6807F110030A2011461A462E2320F008
S214004480A5FF234811F062FC3B68002B18D03A6861
S214004490FB6C9A4202D3FB6C013B3B6007F1400287
S2140044A03B68134400221A7007F140031846B968A7
S2140044B03A681BF037F807F14003184611F078FC0D
S2140044C007F110031348194611F072FC11F004FCB2
S2140044D07B6893F84730002B11D17B68B3F84830DF
S2140044E0012B06D1786803217A6D3B6D43F03EFBC5
S2140044F005E0786803210022002343F037FB7B6D3C
S214004500002B02D0786D19F00FFC5837BD4680BDE1
S214004510A81C0500141D050080B584B000AFB96066
S2140045207A603B600346FB73BB68002B1BD0FB7BAB
S214004530002B18D1B868134906221BF033F803463F
S214004540002B05D07B681048194610221AF0EAFFA7
S214004550B8680E4907221BF025F80346002B02D048
S2140045600020FFF729FE7B6893F84730002B05D123
S214004570786803210022002343F0F8FA1037BD467E
S21400458080BD00BFAC1C0500800DFF1FB41C0500DD
S21400459080B584B000AFB9607A603B600346FB73B9
S2140045A07B6893F84730012B0BD1074811F0CEFB00
S2140045B03B689BB2B868194611F0AEFB034811F091
S2140045C0C5FB1037BD4680BD301D05005C1D0500CF
S2140045D080B586B000AFB9607A603B600346FB7377
S2140045E000237B61404B1B78184642F0C9FF786178
S2140045F078690B213D4A0A2343F09EFC7B6893F8BA
S2140046004730002B22D17B68B3F84830012B02D10B
S214004610374811F09BFB7B68B3F84830022B02D179
S214004620344811F093FB7B68B3F84830032B02D173
S214004630314811F08BFBFB7B012B24D02F4B1B68E2
S214004640786803212E4A43F091FA1CE07B6893F8C1
S2140046504730012B17D17B68B3F84830012B02D1C5
S214004660284811F073FB7B68B3F84830022B02D160
S214004670254811F06BFB7B68B3F84830032B02D15A
S214004680224811F063FB3B689BB2B868194611F0EC
S21400469043FB1F4811F05AFB7B69012283F8472031
S2140046A07B690222A3F848207B6900229A627B6914
S2140046B01846184910221AF035FF104B1B68786907
S2140046C00F491A4643F03AF8134811F03FFB0B4BDC
S2140046D01B689BB20A48194611F01EFB0C4811F0E5
S2140046E035FB1837BD4680BDCD05FF1F3C1B0500BA
S2140046F0601D05008C1D0500B81D0500EC05FF1F9C
S214004700F005FF1FE41D0500301D0500101E050006
S2140047105C1D0500800DFF1F3C1E050080B586B0A1
S21400472000AFB9607A603B600346FB7300237B6191
S214004730404B1B78184642F023FF786178690B21BE
S2140047403D4A0A2343F0F8FB7B6893F84730002B7A
S21400475022D17B68B3F84830012B02D1374811F0DC
S214004760F5FA7B68B3F84830022B02D1344811F0D2
S214004770EDFA7B68B3F84830032B02D1314811F0CC
S214004780E5FAFB7B012B24D02F4B1B6878680321AE
S2140047902E4A43F0EBF91CE07B6893F84730012B78
S2140047A017D17B68B3F84830012B02D1284811F0A6
S2140047B0CDFA7B68B3F84830022B02D1254811F0B9
S2140047C0C5FA7B68B3F84830032B02D1224811F0B3
S2140047D0BDFA3B689BB2B868194611F09DFA1F48AF
S2140047E011F0B4FA7B69012283F847207B69022224
S2140047F0A3F848207B6900229A627B69184618490C
S21400480010221AF08FFE104B1B6878690F491A4663
S21400481042F094FF134811F099FA0B4B1B689BB2B9
S2140048200A48194611F078FA0C4811F08FFA183732
S214004830BD4680BDCD05FF1F3C1B0500601D050065
S2140048408C1D0500B81D0500F405FF1FF805FF1FA9
S214004850E41D0500301D0500101E05005C1D05004A
S214004860800DFF1F3C1E050080B598B000AFB960F4
S2140048707A603B600346FB730023FB650023BB6541
S2140048800A237B65754B1B78184642F079FEF8655F
S214004890F86D0B21724A0A2343F04EFB7B6893F8AF
S2140048A04730002B40F08B807B68B3F84830012BF4
S2140048B01CD16C4811F04AFA6B4800210A224CF0D1
S2140048C024FC6A4B1B68684869491A464CF026FC6B
S2140048D065484CF04FFCB8656648634911F068FAC5
S2140048E078680321604ABB6D43F040F97B68B3F8F3
S2140048F04830022B50D1604811F028FABB68002BD4
S2140049004AD007F114030A205C491A462E2320F0E9
S2140049105DFD07F114035A48194611F049FA594843
S21400492011F014FA3B68002B2ED03A687B6D9A4241
S21400493002D37B6D013B3B6007F144023B681344A6
S21400494000221A7007F144031846B9683A681AF04C
S214004950E9FD07F144033B65386D4CF08EFB0346DA
S2140049601A46424B1A60012387F84F3097F84F20BB
S214004970454B53F822303F48194611F019FA07F113
S2140049804403184611F014FA07F114033F48194679
S21400499011F00EFA11F0A0F97B68B3F84830032B3B
S2140049A002D13B4811F0D2F9FB7B012B24D0394BC6
S2140049B01B6878680321384A43F0D8F81CE07B6807
S2140049C093F84730012B17D17B68B3F84830012B9A
S2140049D002D1324811F0BAF97B68B3F84830022B9E
S2140049E002D12F4811F0B2F97B68B3F84830032B98
S2140049F002D12C4811F0AAF93B689BB2B868194658
S214004A0011F08AF9284811F0A1F9FB6D012283F80C
S214004A104720FB6D0222A3F84820FB6D00229A6215
S214004A20FB6D1846154910221AF07CFD194B1B68C1
S214004A30F86D19491A4642F081FE1C4811F086F9B5
S214004A40144B1B689BB21448194611F065F91648BA
S214004A5011F07CF96037BD4680BD00BFCD05FF1F55
S214004A603C1B0500601D0500980DFF1FD005FF1FAD
S214004A70641E0500681E05008C1D0500800DFF1FC6
S214004A80BC1C0500A81C0500D805FF1F141D05004A
S214004A90B81D0500FC05FF1F0006FF1FE41D0500EE
S214004AA0301D0500101E05005C1D05003C1E05009F
S214004AB080B598B000AFB9607A603B600346FB7380
S214004AC00023FB650023BB650A237B65724B1B78BE
S214004AD0184642F055FDF865F86D0B216F4A0A231B
S214004AE043F02AFA7B6893F84730002B40F0868024
S214004AF07B68B3F84830012B1CD1694811F026F9C1
S214004B00684800210A224CF000FB674B1B6865488A
S214004B1066491A464CF002FB62484CF02BFBB8651F
S214004B206348604911F044F9786803215D4ABB6D1B
S214004B3043F01CF87B68B3F84830022B4BD15D4835
S214004B4011F004F9BB68002B45D07A6807F114030E
S214004B500A2011461A462E2320F038FC564811F03B
S214004B60F5F83B68002B2ED03A687B6D9A4202D34C
S214004B707B6D013B3B6007F144023B681344002217
S214004B801A7007F144031846B9683A681AF0CAFC66
S214004B9007F144033B65386D4CF06FFA03461A463E
S214004BA0414B1A60002387F84F3097F84F20434B4D
S214004BB053F822303E48194611F0FAF807F144033C
S214004BC0184611F0F5F807F114033D48194611F0A0
S214004BD0EFF811F081F87B68B3F84830032B02D168
S214004BE0384811F0B3F8FB7B012B24D0364B1B68FA
S214004BF078680321354A42F0B9FF1CE07B6893F8D9
S214004C004730012B17D17B68B3F84830012B02D10F
S214004C102F4811F09BF87B68B3F84830022B02D17E
S214004C202C4811F093F87B68B3F84830032B02D178
S214004C30294811F08BF83B689BB2B868194611F00A
S214004C406BF8264811F082F8FB6D012283F84720A6
S214004C50FB6D0222A3F84820FB6D00229A62FB6DD2
S214004C6018461F4910221AF05DFC174B1B68F86D9A
S214004C7016491A4642F062FD1A4811F067F8124BC0
S214004C801B689BB21148194611F046F8134811F0FC
S214004C905DF86037BD4680BDCD05FF1F3C1B050097
S214004CA0601D0500A40DFF1FD405FF1F641E050030
S214004CB0681E05008C1D0500A81C0500D805FF1FF2
S214004CC0141D0500B81D05000406FF1F0806FF1F7B
S214004CD0E41D0500301D0500101E05005C1D0500C6
S214004CE0800DFF1F3C1E050080B584B000AFB96084
S214004CF07A603B600346FB73BB68002B0DD0FB7BE2
S214004D00002B0AD17B68B3F84830022B05D13B68EC
S214004D10DBB2B868194600F011F8FB7B012B0AD00D
S214004D207B6893F84730002B05D178680321002272
S214004D30002342F01BFF1037BD4680BD80B584B00F
S214004D4000AF78600B46FB70274B1B68274A012193
S214004D50D154274B00221A707868264902221AF08E
S214004D6021FC0346002B0ED00023FB73FA7B224B5C
S214004D7053F82230184611F01BF810F0ADFF07204C
S214004D80FEF784FF2CE078681C4903221AF00AFC20
S214004D900346002B0ED00123FB73FA7B164B53F809
S214004DA02230184611F004F810F096FF0820FEF79F
S214004DB06DFF15E07868124906221AF0F3FB0346E9
S214004DC0002B0DD00223FB73FA7B0B4B53F82230DB
S214004DD0184610F0EDFF10F07FFF0A20FEF756FF92
S214004DE01037BD4680BD00BFC805FF1F740DFF1FEE
S214004DF06C0DFF1F001D0500E005FF1F041D0500CC
S214004E00081D050080B400AF00BEBD465DF8047BFB
S214004E10704700BF80B400AFBD465DF8047B7047A6
S214004E2080B582B000AF78603960786849F07CFC65
S214004E3002463B681A603B681B68B3F1FF3F08D028
S214004E403B681B68054806491A4649F0BDFC054BF9
S214004E5000E0002318460837BD4680BD8D5300008D
S214004E60D1530000C053050080B582B000AF786013
S214004E703960044879681C221AF054FB0837BD468E
S214004E8080BD00BFB00DFF1F80B582B000AF0346E7
S214004E903960FB80BB1D502019463A6801F0EEF8D9
S214004EA0034618460837BD4680BD00BF80B584B0AF
S214004EB000AF78600023FB8107F10E0350201946EF
S214004EC07A6801F027F9FB8918461037BD4680BD81
S214004ED080B582B000AF03463960FB80BB1D53200F
S214004EE019463A6801F0CAF8034618460837BD4620
S214004EF080BD00BF80B584B000AF78600023FB8122
S214004F0007F10E03532019467A6801F003F9FB896E
S214004F1018461037BD4680BD80B584B000AFC7E9DF
S214004F2002017A6007F10803302019467A6801F01A
S214004F30A5F8034618461037BD4680BD80B582B03A
S214004F4000AF03463960FB71FB1D282019463A68FE
S214004F5001F094F8034618460837BD4680BD00BFEA
S214004F6080B584B000AF78604FF000024FF00003C9
S214004F70C7E9022307F10803302019467A6801F0D2
S214004F80C9F8D7E90223104619461037BD4680BD3A
S214004F9080B588B000AFB9607B600346FB731346EC
S214004FA0BB73FF233B7500237B750023BB75002373
S214004FB0FB7500233B7600237B760023BB7600231D
S214004FC0FB7600233B7707F10F03962019467A6895
S214004FD001F054F80346FB77FB7F012B06D18520B2
S214004FE0B9687A6801F04AF80346FB77FB7F012B25
S214004FF00AD1BB7B3B7707F11403942019467A68E5
S21400500001F03CF80346FB77FB7F18462037BD4689
S21400501080BD00BF80B586B000AF0346B9607A6039
S214005020FB7307F10F03962019467A6801F026F8FD
S2140050300346FB75FB7D012B06D18520B9687A688F
S21400504001F068F80346FB75FB7D18461837BD4629
S21400505080BD00BF80B582B000AF03463960FB71EB
S214005060FB1D212019463A6801F008F80346184649
S2140050700837BD4680BD00BF80B584B000AF7860FD
S2140050800023FB7307F10F03212019467A6801F00D
S21400509041F8FB7B18461037BD4680BD80B582B010
S2140050A000AF03463960FB71FB1D522019463A6873
S2140050B000F0E4FF034618460837BD4680BD00BF33
S2140050C080B584B000AF78600023FB7307F10F0350
S2140050D0522019467A6801F01DF8FB7B18461037F7
S2140050E0BD4680BD80B592B000AF78603960582369
S2140050F07B643868FFF7DAFE03463B817B681B78E3
S2140051003B767B685B787B767B685B887B837B689B
S214005110D3E90223C7E908237B6893F8263087F88B
S2140051202A307B685B7C87F82B307B689B7C87F813
S2140051302C307B68D3E90623C7E90C237B68DB7C2D
S21400514087F8383007F10803184649F0F1F80346A7
S2140051507B647B6C18464837BD4680BD80B586B0FC
S21400516000AF3B600346FB710B46BB7113467B7179
S214005170FF233B7400237B740023BB740023FB7463
S21400518000233B7500237B750023BB750023FB754E
S2140051905D2001213A6801F009F807F110037C2030
S2140051A019463A6800F06AFF782007F120013A684D
S2140051B000F064FF01237B7307F10D037920194685
S2140051C03A6800F05BFF0023FB738CE0FB7B7A7988
S2140051D09A4200D083E007F10F03962019463A68FA
S2140051E000F04CFF992000213A6800F0DFFF952080
S2140051F001213A6800F0DAFF0023BB7334E07B79C4
S214005200BA7902FB03F3DAB2BB7B1344DBB23B731F
S2140052100023BB6007F10E039B2019463A6800F096
S2140052202DFF07F10C03882019463A6800F026FF88
S214005230892000213A6800F0B9FF8A2000213A68E8
S21400524000F0B4FF07F10C03972019463A6800F007
S21400525015FF07F10803922019463A6800F00EFF82
S214005260BB7B0133DBB2BB73BB7BBA799A42C6D831
S2140052709A2000213A6800F099FF862001213A68BA
S21400528000F094FF872000213A6800F08FFF9A20F4
S21400529001213A6800F08AFF862003213A6800F070
S2140052A085FF872004213A6800F080FF98200021BF
S2140052B03A6800F07BFF8B2001213A6800F076FF09
S2140052C08C2000213A6800F071FF8D2000213A689A
S2140052D000F06CFF8E2001213A6800F067FFFB7B30
S2140052E00133DBB2FB73FB7BFA799A423FF66EAF73
S2140052F01837BD4680BD00BF80B584B000AFF871DA
S214005300B9717A713B710023FB7337E0FB7BBA7986
S21400531002FB03F3DAB2FB791344DBB2BB7307F18B
S2140053200E0397201946FA6A00F0A8FE912007F1AE
S2140053301801FA6A00F0A2FE07F120039020194631
S214005340FA6A00F09BFE07F124038F201946FA6ADA
S21400535000F094FE93200121FA6A00F027FFFA7B02
S2140053607B799A4200D006E007F12803922019467E
S214005370FA6A00F083FEFB7B0133FB73FA7B3B7912
S2140053809A42C3D31037BD4680BD00BF80B582B0F9
S21400539000AF786039607B681B78022B09D0042B3D
S2140053A00CD0012B00D00EE07868396800F0C2F906
S2140053B009E07868396800F079F804E078683968B8
S2140053C000F004FA00BF002318460837BD4680BD2B
S2140053D080B582B000AF786039607B681B780D3B83
S2140053E0182B5AD801A252F823F000BF63540000CD
S2140053F09B5400009B5400009B5400009B540000EC
S2140054009B5400009B5400009B5400009B540000DB
S2140054109B5400009B5400009B5400009B540000CB
S21400542051540000715400009B5400009B5400002F
S2140054309B5400009B5400009B5400009B540000AB
S2140054409B5400009B5400007F5400008D540000C5
S2140054507B6808331846396800F090FD18F094FA17
S2140054601CE07B6808331846396800F011FD15E02B
S2140054707B6808331846396800F0ACFE0EE07B689F
S21400548008331846396800F07BFF07E07B6808336E
S2140054901846396800F046FF00E000BF786818F04C
S2140054A043FC002318460837BD4680BD90B587B03C
S2140054B002AF7446786039600023FB730023BB7329
S2140054C07B6893F82230002B04D07B6893F8223058
S2140054D0012B11D13B681B681B681846002102226D
S2140054E024F010FF03461846B021022225F06CFE79
S2140054F0786818F019FC14E17B689B7C022B12D1AB
S2140055007B68D3E902014FF6FF724FF00003994221
S21400551008BF904207D1844B1B78002B03D17868D4
S21400552018F002FCFDE07B6893F822107B68D3E954
S2140055300623786824300090084601F0BBF803463E
S214005540012B40F0C580794B1A7823463820114647
S2140055501A4618F093FBB860BB68002B00F0AA80D0
S214005560BB683A681A607B6893F82220BB681A7199
S2140055707B689A7CBB685A717B681A8ABB68DA803B
S2140055807B68D3E90223B968C1E902237B68D3E9C3
S2140055900623B968C1E904237B681A8CBB681A83A2
S2140055A07B6893F823301A46BB685A837B689A6AEE
S2140055B0BB68DA617B6893F82420BB6883F82020F8
S2140055C07B6893F82520BB6883F821207B6893F8D6
S2140055D02C20BB6883F822207B6893F82D20BB68BC
S2140055E083F823207B68D3E90C23B968C1E90A2332
S2140055F07B6893F83820BB6883F83020BB680022AD
S21400560083F83120BB687A685A63BB681B79022B23
S2140056100DD1BB68D3E904014FF6FF724FF00003CB
S21400562002EA000203EA0103B968C1E90423BB6881
S2140056305B79022B1AD1BB68D3E902014FF6FF72E1
S2140056404FF0000302EA000203EA0103B968C1E969
S2140056500223BB68D3E902014FF6FF724FF0000346
S214005660994208BF904201D10123BB73BB68596BB6
S2140056707B68DA6BBB685B8B084611461A4619F0E6
S214005680CFFF2B4B9B69002B08D0BB6893F82330C9
S214005690022B03D1264B9B69B8689847BB681A79DA
S2140056A0BB681033B86811461A4643F003FE012360
S2140056B0FB7310E07B6893F822207B681833002089
S2140056C011461A4643F0F6FD786818F02DFB02E006
S2140056D0786818F029FBFB7B002B0ED13B681B6813
S2140056E01B6818460021022224F00CFE03461846CA
S2140056F0B521022225F068FD13E03B681B681B6895
S21400570018460021022224F0FDFD0246BB7B002B3A
S21400571001D0B42300E0B32310461946022225F038
S21400572053FD1437BD4690BD0C06FF1F845A050076
S214005730B00DFF1F80B586B000AF786039603B685B
S214005740FB607B681B7A3B757B685B7A7B757B6846
S214005750DB683B6107F10C03786819460C2219F0E8
S214005760E1FE184B5B69002B05D0164B5B6907F111
S2140057700C0210469847786843F084FD7B685B7A95
S214005780002B05D0104B1B695A1C0F4B1A6104E006
S2140057900D4BDB685A1C0C4BDA607B685B7A002B7F
S2140057A00AD038680021022224F0ACFD03461846D1
S2140057B0B121022225F008FD07F0F8FB1837BD4698
S2140057C080BD00BFB00DFF1FCC0DFF1F80B582B09F
S2140057D000AF78603960786818F0A6FA0837BD46DA
S2140057E080BD00BF80B588B000AF7346F860B96072
S2140057F07A600022BA61F122FA770022BA77764AF6
S2140058001268511C744A1160FA68928C02F14001C9
S214005810724A1278084611461A4618F02FFAB861EE
S214005820BB69002B00F0C480BB6903F14002BB6972
S214005830DA63BB69D96BFB681A6AFB689B8C0846FF
S21400584011461A4619F06EFEBB6900221A70B86837
S214005850FFF72CFB03461A46BB691A81FB681B78C8
S214005860022B0AD1B868FFF745FB03469AB24FF001
S2140058700003B969C1E904230BE0FB681B78032B1E
S21400588007D1B868FFF76CFB02460B46B969C1E959
S2140058900423FB68D3E90223B969C1E90823FB683E
S2140058A05A78BB695A76FB685A88BB695A83FB6884
S2140058B09A7CBB6983F82C20FB68DA7CBB6983F88A
S2140058C03820FB681A7CBB6983F82920FB689B8C10
S2140058D0DAB2BB6983F82820FB685A7CBB6983F878
S2140058E02B20FB681A78BB691A76FB6893F826208B
S2140058F0BB6983F82A20FB68D3E90623B969C1E9A6
S2140059000C23FB685B78022B0CD1FB68D3E9020101
S2140059104FF6FF724FF00003994208BF904201D144
S2140059200123BB77B869B96848F05AFF0346FB778E
S214005930FB7F002B23D0284B9B685A1C264B9A6073
S214005940BB697B61BB6993F829207B691A727B6906
S2140059507A681A607B69FA7F5A727B6900225A60FD
S214005960786943F08FFCB8680021022224F0CAFC54
S21400597003461846B221022225F026FC26E0164BE6
S2140059805B685A1C144B5A6007F0EAFAB8680021A4
S214005990022224F0B7FC0246BB7F002B01D0B723BF
S2140059A000E0B62310461946022225F00DFC0DE055
S2140059B0002043F067FCB8680021022224F0A2FC15
S2140059C003461846B821022225F0FEFBFB7F184648
S2140059D02037BD4680BD00BFCC0DFF1F845A050092
S2140059E080B586B000AF734602463960FA71F12280
S2140059F0FA75124A1278402011461A4618F03EF9F7
S214005A0038613B69002B14D03B6903221A703B694E
S214005A100833FB60FB68FA791A703869396848F011
S214005A20DFFE0346FB75FB7D002B02D0386918F0BD
S214005A307BF9FB7D18461837BD4680BD845A0500A5
S214005A4080B592B000AF7860396007F10803002295
S214005A501A60043300221A60043300221A600433EA
S214005A6000221A60043300221A60043300221A60EF
S214005A70043300221A60043300221A600433002222
S214005A801A60043300221A60043300221A600433BA
S214005A9000221A60043300221A60043300221A60BF
S214005AA004331C233B727B681B68DBB23B747B6849
S214005AB05B68DBB27B747B689B687B6107F10803DD
S214005AC01846396849F022F8034687F8473097F8B1
S214005AD0473018464837BD4680BD00BF90B595B0E4
S214005AE000AF74467860396007F1080300221A6038
